:020000040000FA
:100000007812FF1F25040000951D00003304000036
:10001000350400003704000039040000000000002F
:100020000000000000000000000000003B04000091
:100030003D040000000000003F04000041040000F7
:100040004304000043040000430400004304000094
:100050004304000043040000430400004304000084
:100060004304000043040000430400004304000074
:100070004304000043040000430400004304000064
:10040000FFFFFFFFFFFFFFFFFFFFFFFFFEFFFFFFFD
:10041000DFF80CD000F0CCFB004800478925000035
:100420007812FF1F0748804707480047FFF7FEFF85
:10043000FEE7FEE7FEE7FEE7FEE7FEE7FEE7FEE794
:10044000FEE7FEE7CD2200001104000040EA0103B0
:100450009B0703D009E008C9121F08C0042AFAD27A
:1004600003E011F8013B00F8013B521EF9D270473E
:10047000F0B480EA0102D40F4200B2EB410F02D285
:100480000246084611464A0042D0C30DDDB2C1F310
:10049000C752AD1A202D35DAC1F3160141F400021E
:1004A00004B15242C5F1200602FA06F12A41104475
:1004B000B3EBD05F23D0C4B1012DA0EBC35009DC56
:1004C000F0BC4FF0004202EAC352DBB200F500007C
:1004D00000F0E2BA400000F1807000EBC350A0F1E0
:1004E000807040EAD170490009E0490841EAC071D2
:1004F000A0EBC35000F50000400800EBC350F0BC77
:1005000000F0C1BA6142012202EB4101001BF6E793
:10051000F0BC704781F00041AAE780F00040A7E7F7
:1005200080EA010210B502F00043400022D04A00E8
:100530001FD0010E01EB1261C0F35600C2F3560248
:1005400040F4000042F40002A0FB022000047F39C6
:10055000140400D0401C50EA124001D44000491E4F
:10056000C2B20C0604EBD010401C4008802A02D016
:1005700003E0002010BD20F00100002900DA002077
:10058000184310BD2DE9FE4F804681EA0300C00FDD
:100590000C46009021F0004123F00045B8EB02002A
:1005A000A94105D24046214690461C460B460246CC
:1005B00023F00040104347D0270DC7F30A00C3F3D0
:1005C0000A510290401A019040286BDAC3F31300DD
:1005D00040F4801B0098924620B10023D2EB030A1E
:1005E00063EB0B0B01985946C0F14002504600F0F6
:1005F00019FA06460D4650465946019A00F031FA5E
:1006000010EB08006141002487EA115284EAE77385
:100610001A4340D0009A62B3019A012A4FEA075266
:1006200015DC001B61EB02014FF0004202EA0752A9
:10063000CDE90042001C41F5801132462B4600F006
:1006400068FA03B0BDE8F08F40462146F9E7001B89
:1006500061EB0201001C41F5801300185B4120187A
:10066000A2F5001747EB030140EAD570B6196D41BA
:1006700011E06D084FEA360645EAC0754FEA0752A9
:10068000001B61EB0201001C41F5801149084FEA93
:1006900030000019514132462B4603B0BDE8F04FFF
:1006A00000F028BA0098012240000023D0EB02029B
:1006B00063EBE073009821464FEAE074B8EB00006A
:1006C00061EB0401E9E783F000435BE781F000415F
:1006D00058E72DE9FE4F81EA030404F0004421F0BD
:1006E000004100944FF0000B23F0004350EA010456
:1006F0005ED052EA03045BD0C3F30A54C1F30A5537
:100700002C44A4F2F3340194A0FB0254C1F313016E
:1007100041F48011C3F3130343F4801301FB02443B
:1007200000FB034E840A970A44EA815447EA835740
:10073000A4FB076802958D0A05FB07854FEA932CF9
:1007400004FB0C542705029D4FEA065847EA16376A
:10075000B5EB08056EEB070C870E920E47EA811782
:1007600042EA8312A7FB0201B6EB0B0164EB000423
:100770002B0D43EA0C335E1844EB1C50DA4651460D
:10078000E7FB0201C5F313044FEA0B3343EA1453AA
:100790004FEA0432019C43EA0603A4F10C040294DC
:1007A000009CCDE900B400F0B4F903B0BDE8F08FCF
:1007B00000200146F9E72DE9F04D81EA030404F039
:1007C000004B21F0004514464FF0000A23F0004191
:1007D00050EA050220D054EA01021DD0C5F30A57A1
:1007E0000246C5F31303C1F31300C1F30A5640F4E4
:1007F000801543F48013A7EB0608101BD64608F2B9
:10080000FD3873EB050002D308F1010801E09218EE
:100810005B41B8F1000F03DA00200146BDE8F08D1E
:1008200000204FF48011064684460EE0171B73EB40
:10083000050705D3121B63EB050306434CEA010CC5
:1008400049084FEA300092185B4150EA0107EDD1A8
:1008500052EA030012D082EA040083EA0501084349
:1008600005D0101BAB4106D20122002306E0002276
:100870004FF0004302E06FF0010253101AEB060044
:100880004CEB085110EB0A0041EB0B01BDE8F04DB9
:1008900000F030B9C10F80EAE0700844CA0796231F
:1008A000002100F0F9B896230022114600F0F4B8B8
:1008B0000EB5C10F80EAE0700844CA07002140F27B
:1008C00033438DE80E000A460B4600F022F903B0D0
:1008D00000BD00F0004220F00040C10DC0F3160042
:1008E00040F400007F2901DA00207047962903DCDC
:1008F000C1F19601C84001E096398840002AF4D041
:100900004042704720F00040C10DC0F3160040F493
:1009100000007F2901DA00207047962903DCC1F12D
:100920009601C840704796398840704770B5C1F34A
:100930000A5201F000450024C1F3130140F2FF33D5
:1009400041F480119A4201DA002070BD40F2334335
:100950009A42A2F2334203DC524200F072F800E005
:1009600090402C43F1D0404270BDC1F30A5210B503
:10097000C1F3130140F2FF3341F480119A4201DACE
:10098000002010BD40F233439A42A2F2334203DC0E
:10099000524200F056F810BD904010BD00F00042E9
:1009A00030F000400AD0C10D01F56071C0F31600AF
:1009B00042EA0151C2084007114370470020014636
:1009C000704701F0004330B421F0004150EA0102C9
:1009D00006D00A0DA2F56072C1F31301002A02DCF1
:1009E00030BC00207047440F44EAC104C100E01845
:1009F00030BC00EBC25000F046B80000002801DB1C
:100A0000C0F10040002901DBC1F100418142704783
:100A1000002801DBC0F10040002901DBC1F10041E9
:100A200088427047202A04DB203A00FA02F10020B5
:100A300070479140C2F1200320FA03F3194390401C
:100A40007047202A04DB203A21FA02F00021704787
:100A500021FA02F3D040C2F1200291400843194626
:100A60007047202A06DBCB17203A41FA02F043EA0E
:100A7000E07306E041FA02F3D040C2F12002914057
:100A80000843194670470029A8BF7047401C490019
:100A900008BF20F00100704710B4B0FA80FC00FAE3
:100AA0000CF050EA010404BF10BC704749B1CCF10E
:100AB000200421FA04F411FA0CF118BF012121439A
:100AC0000843A3EB0C01CB1D4FEA00614FEA102055
:100AD00042BF002010BC704700EBC35010440029F7
:100AE000A4BF10BC7047401C490008BF20F00100A3
:100AF00010BC704710B5141E73F1000408DA401CD6
:100B000041F1000192185B411A4301D120F001002C
:100B100010BD2DE9F04D92469B4611B1B1FA81F21C
:100B200002E0B0FA80F220329046FFF77BFF0446E5
:100B30000F4640EA0A0041EA0B0153465A46084371
:100B400013D0114653EA010019D0C8F140025046B3
:100B5000FFF777FF05460E46504659464246FFF7D7
:100B600061FF084305D0012004E020463946BDE876
:100B7000F08D0020054346EAE0762C4337430A987F
:100B80006305E40AA0EB08000022FD0A44EA47548A
:100B90000A3002D500200146E9E701051019694134
:100BA000DDE9084500196941BDE8F04DA2E7000004
:100BB000064C074D06E0E06840F0010394E80700AA
:100BC00098471034AC42F6D3FFF726FCF835000006
:100BD0001836000010B50024292001F0F9FB08B9EF
:100BE00044F00104312001F0F3FB08B944F00204A1
:100BF000132001F0EDFB08B944F00404452001F096
:100C0000E7FB08B944F00804302001F0E1FB08B923
:100C100044F01004204610BD4CF220500449C88115
:100C20004DF62810C8814FF4E97008807047000025
:100C30000020054038B50546E80200900920094922
:100C4000C8719DF8020088719DF8010048719DF8F7
:100C50000000087172B600F03DF8044662B6204606
:100C600038BD000000000240302001490870704784
:100C7000000002402DE9F84305460F461446200EB9
:100C80008DF80300200C8DF80200200A8DF8010079
:100C9000E0B28DF8000007EBC52606200C49C871AC
:100CA000300C8871300A48710E719DF80300C872CB
:100CB0009DF8020088729DF8010048729DF80000BE
:100CC000087200F007F880464046BDE8F88300004F
:100CD0000000024010B53020084908700848094952
:100CE00008600648096888470448007800F0310029
:100CF00008B1012010BD0020FCE700000000024008
:100D00002500FF1F3400FF1F0CA00E49C8620E49CA
:100D10000C4801630DA14164FE2180F840100C498C
:100D200041630CA18164FE2180F841100A4981636E
:100D30000AA1C164FC2180F8421070475350454518
:100D4000440000005C00FF1F0000FF1F6C6975007D
:100D50000400FF1F617364000800FF1F64736100DB
:100D60002DE9F041002001F016F817A200213320F0
:100D700001F0C6F9002423E004EB440000EBC400BA
:100D8000134951F82000C8B104EBD4735B105B1C0D
:100D9000D9B2254604EBD5735B10A4EB43030BB922
:100DA000002300E0402303F1080004EB440303EBBD
:100DB000C403074F57F8232001F0A2F9601CC4B206
:100DC0000A2CD9DBBDE8F0814D656E75000000008E
:100DD0005C00FF1F2DE9F04100250027FFF794FF7D
:100DE000AAA0AD49086000208861FFF73DFF0124FB
:100DF00095E004EB440000EBC400A74951F8200043
:100E000000B98AE000266FE004EB440000EBC40068
:100E1000A14901EB8000001D50F8260005F00F01EC
:100E20009E4A42F8210004EB440000EBC4009A49BA
:100E300001EB80001430805D05F00F01984A50549A
:100E400004EB440000EBC400934901EB8000143034
:100E50008057801C80B905F00F00904951F82000A0
:100E6000B0F90010680100F55430B0F9000081427B
:100E700036D045F0100533E004EB440000EBC4002D
:100E8000854901EB80001430805D02280ED105F009
:100E90000F00824951F820000188680100F55430A4
:100EA000008881421CD045F0100519E004EB440095
:100EB00000EBC400784901EB800014308057001D1E
:100EC00070B96A0102F55432116805F00F02734BD4
:100ED00053F822201068FFF791FD01D045F010056E
:100EE000681CC5B2701CC6B2042E0BDA04EB4400B9
:100EF00000EBC400684901EB8000183050F8260070
:100F0000002881D170B204EB440101EBC401624AB4
:100F100002EB810181F8280000BF601CC4B20A2CDA
:100F2000FFF667AF05F0100000284ED025F0100541
:100F30006A20FFF77FFE9C20FFF77CFE002441E043
:100F400057480057801C90B9544850F82400B0F915
:100F5000002061016A20FFF78DFE504850F8240000
:100F6000B0F9002061019C20FFF784FE28E04C4886
:100F7000005D022810D1494850F824000288610120
:100F80006A20FFF777FE454850F824000288610187
:100F90009C20FFF76FFE13E041480057001D78B911
:100FA0003E4850F82400610102686A20FFF762FEA3
:100FB0003A4850F82400610102689C20FFF75AFE6D
:100FC000601CC4B2AC42BBDB5CE00024002757E0ED
:100FD00004EB440000EBC4002F4951F82000E8B3B3
:100FE000002640E004EB440000EBC4002A4901EB7A
:100FF000800014308057801C40B9780100F59C2097
:101000000088264951F82710088026E004EB4400A8
:1010100000EBC400204901EB80001430805D022801
:1010200008D1780100F59C2000881C4951F8271050
:10103000088012E004EB440000EBC400164901EB09
:10104000800014308057001D38B9780100F59C20CD
:101050000068124951F82710086000E00EE0781C83
:10106000C7B2701CC6B204EB440000EBC4000A49CE
:1010700001EB800090F92800B042B3DC601CC4B2E0
:101080000A2CA5DBFFF76CFEBDE8F081436C6F73A3
:10109000654D656E750000005C00FF1F1402FF1FA8
:1010A0005402FF1F2DE9F0478146002000F073FE37
:1010B000002401E0601CC4B2D9F80000005D0028E3
:1010C000F8D104EB44014900C1F17F0505EBD5716E
:1010D000C1F347000021D9F8002001F011F80024E5
:1010E0006FE009F1180050F82420601CC1B20820FC
:1010F00001F006F809F114000057801C68B909F1E5
:10110000040050F82400B0F90020601CC1B26FF058
:101110000203502000F088FF51E009F11400005D47
:1011200002280DD109F1040050F82400008802B211
:10113000601CC1B26FF00203502000F075FF3EE06A
:1011400009F114000057001D00BB09F1040151F81A
:10115000241008680021FFF75BFC18D809F104018E
:1011600051F824100868FFF719FC07461D4A1E4B6A
:10117000FFF708FA0546FFF724FC8246601CC1B25F
:101180006FF001035246502000F0B2FE17E009F163
:10119000040151F824100868FFF700FC0546114AC5
:1011A000114BFFF790FA0746FFF70BFC8246601CD5
:1011B000C1B26FF001035246502000F099FE601C4E
:1011C000C4B299F92800A0428BDC08A206210820AD
:1011D00000F096FF07A20721082000F091FFBDE86C
:1011E000F08700002D431CEBE2361A3F5341564571
:1011F000000000004241434B000000002DE9F04F89
:1012000087B04FF0000AD146F74890F90000F7493F
:101210000870F74890F90000F6490870FFF7DAFC0B
:10122000814609F00F00002827D0F348007828BB3A
:1012300009F0010028B1EC480078801E40B2EA496C
:10124000087009F0020028B1E7480078801C40B21D
:10125000E549087009F0040028B1E3480078401E11
:1012600040B2E149087009F008000028DCD0DE48EF
:101270000078401C40B2DC490870EEE1DF4800789D
:1012800028BB09F0010028B1D9480078401E40B2BF
:10129000D749087009F0020028B1D5480078401CF1
:1012A00040B2D349087009F0040028B1D048007852
:1012B000401E40B2CE49087009F008000028DCD07A
:1012C000CB480078401C40B2C9490870C5E1C64807
:1012D00090F9000000EB400101EBC000C84901EBB0
:1012E00080001430C24991F900104056801C00283B
:1012F0005DD109F0010070B1C249BD4A92F90020E8
:1013000051F82200C049FFF7B3F8BE49B84A92F934
:10131000002041F8220009F0020070B1B949B44A36
:1013200092F9002051F82200B749FFF7F3F8B549C8
:10133000AF4A92F9002041F8220009F0040078B188
:10134000B049AB4A92F9002051F822004FF07E518B
:10135000FFF7E0F8AB49A64A92F9002041F82200D5
:1013600009F0080078B1A749A14A92F9002051F884
:1013700022004FF07E51FFF77BF8A2499C4A92F978
:10138000002041F822009F49994A92F9002051F823
:101390002200FFF79EFA05B295480078401CC1B2C2
:1013A0006FF002032A46502000F03EFE55E18E48C1
:1013B00090F9000000EB400101EBC000904901EB07
:1013C000800014308A4991F90010405C02286FD1E6
:1013D00009F0010070B18B49854A92F9002051F85B
:1013E00022008949FFF744F88649814A92F9002092
:1013F00041F8220009F0020070B182497C4A92F95A
:10140000002051F822008049FFF784F87D49784A8E
:1014100092F9002041F8220009F0040078B17949DE
:10142000734A92F9002051F822004FF07E51FFF7E5
:1014300071F874496E4A92F9002041F8220009F0CF
:10144000080078B16F496A4A92F9002051F82200E9
:101450004FF07E51FFF70CF86A49654A92F9002077
:1014600041F822006749624A92F9002051F82200AF
:101470000021FFF7C3FA06D2002062495C4A92F9C4
:10148000002041F822005F49594A92F9002051F8A2
:101490002200FFF71EFA05B255480078401CC1B281
:1014A0006FF002032A46502000F0BEFDD5E0FFE7B2
:1014B0004D4890F9000000EB400101EBC00050499D
:1014C00001EB800014304A4991F900104056001D8C
:1014D0000028EBD109F00100A8B14A49444A92F929
:1014E000002051F82200FFF759FA0746474A484BB7
:1014F000FFF748F80546FFF764FA42493C4A92F97B
:10150000002041F8220009F00200A8B13D49384A04
:1015100092F9002051F82200FFF740FA07463B4AB3
:101520003B4BFFF7D0F80546FFF74BFA3549304AF9
:1015300092F9002041F8220009F00400A8B13149D5
:101540002B4A92F9002051F82200FFF727FA0746AC
:10155000304A314BFFF7B7F80546FFF732FA294911
:10156000234A92F9002041F8220009F00800A8B1AE
:1015700024491F4A92F9002051F82200FFF70EFA81
:101580000546244A244BFEF7FDFF0746FFF719FAEC
:101590001C49174A92F9002041F822001949144ABF
:1015A00092F9002051F822000021FFF731FA39D8D2
:1015B00014490F4A92F9002051F82200FFF7EEF982
:1015C0000746164A164BFEF7DDFF0546FFF7F9F909
:1015D000834607480078401CC1B26FF001035A46A9
:1015E000502000F085FC38E00C00FF1F0D00FF1FAD
:1015F0000F00FF1F1000FF1F0E00FF1F1100FF1F35
:101600005C00FF1F6402FF1F0000A0409A99999997
:101610009999B93F7B14AE47E17A843F2D431CEB87
:10162000E2361A3FFC49FD4A92F9002051F82200A7
:10163000FFF7B4F90746FA4AFA4BFFF744F80546B4
:10164000FFF7BFF98346F5480078401CC1B26FF040
:1016500001035A46502000F04BFCF3480078B0B923
:10166000F24890F90000002805DAF04800780E30C2
:1016700040B2EE490870ED4890F900000D2805DDF4
:10168000EA4800780E3840B2E84908708FE0E64832
:101690000078012876D1E14890F90000002802DAAC
:1016A0000620DE490870E14890F9000000EB400197
:1016B00001EBC000DE4901EB800090F92800401EDC
:1016C000D64991F9001088421FDAD44890F90000F9
:1016D00005281ADAD14890F90000D64991F900108E
:1016E000884212DDD14890F9000000EB400101EB87
:1016F000C000CF4901EB800090F82800C749097865
:10170000081A401D40B2C5490870C84890F9000049
:1017100000EB400101EBC000C54901EB800090F9EE
:101720002800401EBD4991F90010884220DABB48CC
:1017300090F9000005281BDAB84890F90000BD496F
:1017400091F90010884213DAB4480078401FB74975
:1017500091F9001001EB410202EBC101B44A02EB26
:10176000810191F82810084440B2AC4908701EE08D
:10177000AA4890F90000062819DD0020A749087042
:1017800015E0FFE7A8480078022810D1A34890F997
:101790000000052803DA0620A049087007E09F48EA
:1017A00090F90000062802DD05209C4908709E483B
:1017B000007880BBA04A92F9006006EBD672521006
:1017C000521CD1B29C4A92F9005005EBD5725210CE
:1017D000A5EB42020AB9002200E04022104697A27F
:1017E00000F08EFC914A92F9006006EBD67252101E
:1017F000521CD1B28D4A92F9005005EBD5725210AD
:10180000A5EB42020AB9002200E0402210468CA259
:1018100000F076FC2EE0FFE786480078401CC1B25D
:1018200086A2002000F06CFC804890F9000000EBDC
:10183000400101EBC0007E4901EB800090F92800D7
:10184000764991F9001088420CDD7E480078012825
:1018500008D172480078401CC1B27BA2002000F081
:101860004FFC07E06D480078401CC1B274A2002014
:1018700000F046FC09F0100000286ED06B4800789C
:1018800000286BD068480078002868D1674890F934
:10189000000000EB400101EBC000654951F8200059
:1018A0000028EAD0012060490870002061490870D2
:1018B0005A4908705D4991F9001001EB410202EBB1
:1018C000C1015B4A02EB8100FFF7ECFB002468E0FA
:1018D000564890F9000000EB400101EBC00054496C
:1018E00001EB800014300057801CA0B94F4991F9DA
:1018F000001001EB410202EBC1014D4A02EB8101F4
:10190000091D51F82410B1F90000FEF7C3FF424948
:1019100041F8240043E0454890F9000000EB400105
:1019200001EBC000424901EB80001430005D022849
:1019300016D13E4991F9001001EB410202EBC101C1
:101940003B4A02EB8101091D51F824100888FEF77B
:10195000AAFF314941F8240021E0E0E1E0E149E05B
:10196000324890F9000000EB400101EBC000304923
:1019700001EB800014300057001D80B92B4890F90E
:10198000000000EB400101EBC000294901EB8000A1
:10199000001D50F8240000681F4941F82400601C15
:1019A00084B2224890F9000000EB400101EBC00036
:1019B0001F4901EB800090F92800A04288DC002438
:1019C0000020224908800FE004EB440000EBC40033
:1019D000174901EB800090F928001C490988084448
:1019E0001A490880601C84B2104890F900008442B3
:1019F000EADBA3E10C4800780128FAD10748007817
:101A0000062803D00548007805287DD103480078D2
:101A100005287AD10024EDE06402FF1F0F00FF1FAC
:101A20002D431CEBE2361A3F0E00FF1F0C00FF1F78
:101A30005C00FF1F1000FF1F0D00FF1F20000000B3
:101A40003E0000001100FF1F2A0000001200FF1FCF
:101A5000C34890F9000000EB400101EBC000C14910
:101A600001EB800014300057801C90BBBE4951F838
:101A700024000021FEF7CCFF15D8BB4951F8240003
:101A8000FEF78CFF0546B94AB94BFEF77BFD0746CA
:101A9000FEF74CFF00B2B74909882144B64A52F814
:101AA00021100880A4E0B04951F82400FEF776FF29
:101AB0000546AE4AAE4BFEF706FE0746FEF736FF7A
:101AC00000B2AC4909882144AB4A52F82110088081
:101AD0008EE0FFE7A24890F9000000EB400101EB27
:101AE000C000A04901EB80001430005D022817D12E
:101AF0009D4951F82400FEF751FF07469B4A9C4B35
:101B0000FEF740FD054601E0F1E0B8E0FEF72DFFED
:101B1000984909882144984A52F82110088067E0C2
:101B20008F4890F9000000EB400101EBC0008D49A7
:101B300001EB800014300057001D78BB8A4951F832
:101B400024000021FEF764FF29D8874951F82400BA
:101B5000FEF724FF854A864BCDE90001FEF712FD12
:101B600005460022854BFEF7B4FDCDE90201FEF7E4
:101B7000DDFE0FFA80FB5846FEF79AFE074600226C
:101B80007E4BFEF718FECDE90401FEF71AFF7949F6
:101B900009882144784A52F82110086028E07249E7
:101BA00051F82400FEF7FAFE0546704A704BFEF726
:101BB0008AFD07460022714BFEF78BFDCDE900013F
:101BC000FEF7B4FE0FFA80FB5846FEF771FE0022C6
:101BD0006A4BCDE90201FEF7EEFDCDE90401FEF707
:101BE000F0FE644909882144634A52F821100860D4
:101BF000601C84B25A4890F9000000EB400101EBF0
:101C0000C000584901EB800090F92800A0423FF73E
:101C10001FAF9C20FFF70EF80024A2460DE004EB56
:101C2000440000EBC4004F4901EB800090F928000C
:101C300050441FFA80FA601C84B20A2CEFDB0024A7
:101C40001BE04F480057801C48B94B4850F824000F
:101C5000B0F9002061019C20FFF70CF80BE0484828
:101C60000057001D38B9444850F82400610102684B
:101C70009C20FEF7FFFF601C84B25445E1DB00208E
:101C80003C490880002405E00020374941F8240041
:101C9000601C84B2324890F9000000EB400101EB77
:101CA000C000304901EB800090F92800A042EBDC35
:101CB000002034490870FFF753F8294A92F9006070
:101CC00006EBD6725210521CD1B2254A92F900503E
:101CD00005EBD5725210A5EB42020AB9002200E0D2
:101CE00040221046AFF2A82200F00AFA26E01C4873
:101CF00090F9000000EB400101EBC000194901EB35
:101D0000800090F92800204991F90010884215DDE3
:101D10001E4890F9000080F001001C4908700DE099
:101D200001201B4908804FF0000900BF302000F05F
:101D30004FFB0028FAD0002000F02DF8B9F1000F79
:101D400004D00121602000F0FBFB03E000216020B3
:101D500000F0F6FB0E48007807B0BDE8F08F0000F9
:101D60000C00FF1F5C00FF1F6402FF1F2D431CEBD4
:101D7000E2361A3F1200FF1F1402FF1F00005940F5
:101D80005402FF1F0E00FF1F0F00FF1F1100FF1F57
:101D90001400FF1F704770B50646002415E004F1DB
:101DA000B001C8B200F0FEF9012000F0FBF91020EC
:101DB00000F0F8F9002504E0304600F00FFA681C46
:101DC00085B2802DF8DB601C84B2082CE7DB70BD87
:101DD00010B5044604B10124E1B241F0AE0000F0B8
:101DE000E1F910BD07E0DE2100BF0A1EA1F10101EB
:101DF000FBD1421E90B20028F5D1704710B500F01B
:101E0000B1F900BF38480068384900FB01F30022EF
:101E10001146104600F022FC00BF00210C2000F00B
:101E20008FFB3220FFF7DEFF01210C2000F088FB42
:101E30000020FFF7CDFF002000F0B4F9102000F0E3
:101E4000B1F9402000F0AEF9812000F0ABF9CF20CD
:101E500000F0A8F9A12000F0A5F9C82000F0A2F92F
:101E6000A62000F09FF9A82000F09CF93F2000F088
:101E700099F9D32000F096F9002000F093F9D520CD
:101E800000F090F9802000F08DF9D92000F08AF957
:101E9000F12000F087F9DA2000F084F9122000F038
:101EA00081F9DB2000F07EF9402000F07BF9202052
:101EB00000F078F9022000F075F98D2000F072F939
:101EC000142000F06FF9A42000F06CF9A62000F0B7
:101ED00069F90120FFF77CFF0020FFF75CFF00217C
:101EE000084600F04BF910BD2000FF1F40420F00D4
:101EF0002DE9FF4F83B08346924699460021504614
:101F0000FEF77CFD08D22D208DF800004049504698
:101F1000FEF706FB824602E02B208DF800005046BB
:101F2000FEF73CFD07463B4A3B4BFEF72BFB0546C5
:101F3000FEF747FD824639495046FEF7F1FA05465D
:101F4000FEF7E0FC04463649B4FBF1F201FB124017
:101F50003449B0FBF1F03030C0B28DF80100B4FB71
:101F6000F1F201FB124042F21071B0FBF1F030309F
:101F7000C0B28DF80200B4FBF1F201FB12404FF445
:101F80007A71B0FBF1F03030C0B28DF80300B4FBD1
:101F9000F1F201FB12406421B0FBF1F03030C0B22D
:101FA0008DF804002E208DF80500B4FBF1F201FB42
:101FB00012400A21B0FBF1F030308DF80600B4FB7E
:101FC000F1F201FB124030308DF8070000208DF84F
:101FD0000800B9F1000F0CDA9DF8001009F10400B7
:101FE0000DF80010694642185846049900F088F828
:101FF0000AE0B9F1000F07DDC9F105006946421892
:102000005846049900F07CF807B0BDE8F08F000056
:10201000000080BF8DEDB5A0F7C6B03E0000C842FD
:1020200040420F00A08601002DE9FC4106460F4604
:1020300014461D46002C05DA604204B22D208DF8AE
:10204000000002E02B208DF800002C4894FBF0F1FA
:1020500000FB114042F2107190FBF1F03030C0B241
:102060008DF80100084694FBF0F100FB11404FF49D
:102070007A7190FBF1F03030C0B28DF80200084662
:1020800094FBF0F100FB1140642190FBF1F0303043
:10209000C0B28DF80300642094FBF0F100FB114006
:1020A0000A2190FBF1F03030C0B28DF804000A2014
:1020B00094FBF0F100FB11403030C0B28DF8050008
:1020C00000208DF80600002D0BDA9DF80010681D29
:1020D0000DF80010694642183946304600F010F8F5
:1020E00009E0002D07DDC5F10600694642183946B2
:1020F000304600F005F8BDE8FC810000A086010034
:102100002DE9F0470446884615464FF000090026A1
:10211000002720E0E85D203800F0FF097E2C04DD78
:10212000002408F1010000F0FF084146204600F0BD
:1021300025F8002609E009EB4901094A02EB4101B3
:10214000885D00F04BF8701CC6B2062EF3DBA01DB4
:10215000C4B2781CC7B2E85D0028DBD1BDE8F087C7
:10216000BC2B000010B5012211460C2000F046F9EE
:10217000012211460D2000F041F910BD70B5044652
:102180000D4605F1B001C8B200F00CF8102141EA8B
:10219000141000F007F804F00F0141F0010000F006
:1021A00001F870BD10B5044600210D2000F0C8F9FB
:1021B00000BF09480068C06A00F000400128F8D05C
:1021C0004FF0004004490968C862A0B240F00040E6
:1021D00001490968486310BD3800FF1F10B5044667
:1021E00001210D2000F0ACF900BF09480068C06A69
:1021F00000F000400128F8D04FF000400449096881
:10220000C862A0B240F0004001490968486310BDAF
:102210003800FF1F10B54FF0FF30294948642948A6
:10222000407820F00200274948700846407840F086
:1022300020004870BA2008700846C07800F01F00DF
:10224000C8700846407900F0BF00487100BF1D48C3
:10225000807900F010000028F9D100BF194880797A
:1022600000F00C000828F9D117480468006840F411
:102270007F001549086000F04DF81348046000BF66
:102280001048807900F020000028F9D000BF0D48E8
:10229000807900F040000028F9D01A200949087020
:1022A00000BF0848807900F00C000C28F9D100BF6D
:1022B0000448807900F040000028F9D010BD0000EB
:1022C000008004400040064000F0014010B508487E
:1022D000006840F4700006490860FEF79DFCFFF7B7
:1022E00099FF01221146042000F088F810BD00007B
:1022F00088ED00E002E008C8121F08C1002AFAD1E8
:1023000070477047002001E001C1121F002AFBD175
:1023100070470000022323B1012B06D0022B0CD101
:1023200007E00B4A18205A210BE00A4A0E205521DB
:1023300007E0084A0E205E2103E0054A18205A21D2
:1023400000BF00BF044B5A64044B187159717047A9
:1023500000001301000025010080044000400640F9
:1023600010B51648407900F01F001830322110FBDC
:1023700001F11248007900F01F00401CB1FBF0F0A1
:102380000F4908600F48406C012101EB10700C49A7
:102390000968B1FBF0F00C4908600A48406CC0F3D2
:1023A0000360401C06490968B1FBF0F0074908606A
:1023B0004FF4E131022000F003FB10BD0040064065
:1023C0001800FF1F008004401C00FF1F2000FF1F9B
:1023D0000CB501464811019001F01F00009006481D
:1023E0009DF8042050F8220000699DF80020D0409C
:1023F00000F001000CBD00007C3500007CB54311ED
:10240000019300F01F0300934A4B9B6B9DF804500F
:102410004FF40074AC402343464CA363464C9DF8F4
:10242000045054F825409DF8005004EB85031C68C7
:1024300024F4E0641C60404C9DF8045054F825409E
:102440009DF8005004EB85031C6844F480741C6004
:1024500071B13A4C9DF8045054F8254004F114032E
:1024600064699DF800600125B5402C431C600DE0B7
:10247000324C9DF8045054F8254004F1140364696B
:102480009DF800600125B540AC431C60D1B162B13C
:102490002A4C9DF8045054F825301C689DF80060C3
:1024A0000125B5402C431C6042E0244C9DF80450AB
:1024B00054F825301C689DF800600125B540AC43F8
:1024C0001C6035E0D2B91C4C9DF8045054F82540EE
:1024D0009DF8005004EB85031C6824F003041C6085
:1024E000154C9DF8045054F825409DF8005004EB1D
:1024F00085031C6844F002041C6019E00E4C9DF832
:10250000045054F825409DF8005004EB85031C68E6
:1025100024F003041C60084C9DF8045054F8254036
:102520009DF8005004EB85031C6844F003041C6014
:102530007CBD000000800440683500007C35000050
:102540003CB54211019200F01F02009261B10D4BA7
:102550009DF8044053F8242013689DF8005001248E
:10256000AC40234313600BE0064B9DF8044053F846
:10257000242013689DF800500124AC40A34313604D
:102580003CBD00007C35000010B5FFF7E9FEFFF709
:1025900035FC002201216020FFF730FF01220021DD
:1025A0003020FFF72BFF012200214520FFF726FFF7
:1025B000012200211320FFF721FF012200213120F9
:1025C000FFF71CFF012200212920FFF717FFFEF76C
:1025D00001FC02E0C82000F0E1F9FEF70FFE002840
:1025E000F8D0002010BD00003CB54211019200F06F
:1025F0001F020092164A926B9DF804404FF400733C
:10260000A3401A43124B9A639DF8003001229A406E
:10261000104B9DF8044053F82430C3F8A0200D4A15
:102620009DF8043052F823209DF8003042F8231022
:10263000094B9DF8044053F8243003F114025B6900
:102640009DF800500124AC40A34313603CBD000042
:102650000080044090350000A43500002DE9FF4FB4
:1026600099B005460C464FF000094022B94908A828
:10267000FDF7ECFEB8A00068079000200590461E0C
:10268000002D40D1B548C06B40F48050B349C863B9
:1026900049150F20FFF7A8FF4FF400711020FFF736
:1026A000A3FF04F0010020B14FF400710E20FFF7EA
:1026B0009BFF04F0020020B14FF400714320FFF7AC
:1026C00093FF04F0040020B14FF400714220FFF7A3
:1026D0008BFF04F0080020B14FF400714120FFF798
:1026E00083FF04F0100020B14FF400714020FFF789
:1026F0007BFF04F02000002859D04FF440713720B0
:10270000FFF772FF53E0012D2DD19448C06B40F4C8
:1027100000509249C86349152B20FFF765FF6902F5
:102720003020FFF761FF04F0010018B169022A2090
:10273000FFF75AFF04F0020020B14FF4007180202F
:10274000FFF752FF04F0040020B14FF40071852020
:10275000FFF74AFF04F0080020B34FF40071862011
:10276000FFF742FF23E0022D1DD17C48006B40F4AF
:1027700080507A49086349153520FFF735FF290253
:102780003620FFF731FF04F0010018B12902342090
:10279000FFF72AFF04F0020020B14FF400716F2010
:1027A000FFF722FF03E000201DB0BDE8F08F40F6E8
:1027B00001406B4951F8251008606A48684951F892
:1027C0002510C8621B98002875D14FF4F81000EA54
:1027D000044040F0004040F44050614951F8251059
:1027E0000860FFF7BDFD60480068604948431C99D8
:1027F000B0FBF1F94FF0000829E0002018901CE030
:1028000008A850F8280007AA1899515C00FB01FAA3
:10281000AAEB0900002801DB014600E041420F4617
:10282000BE4206D93E46CDF814801898049006B9E9
:1028300006E01898401CC0B2189018980428DFDBF6
:1028400000BF06B906E008F1010000F0FF08B8F18A
:10285000100FD2DB00BF08A9059851F8200007AA85
:102860000499515C484340490968404A5143B1FBCF
:10287000F0F006903C480168104641430698B1FBD1
:10288000F0F04FEA50094FF0FF360F20019003207F
:1028900002904FF0000B2AE00BF10100012101FA38
:1028A00000FAB9FBFAF0401EC0F34700039003980A
:1028B000032801DD17E03AE003984000401C0AFBC2
:1028C00000FAAAEB0900002801DB014600E04142C2
:1028D0000F46BE4206D93E46CDF804B0039802909A
:1028E00006B907E000BF0BF1010000F0FF0BBBF1E0
:1028F0000F0FD1DD00BF4FF44031049801EA0040D2
:10290000059901F00F01084340F060504FF4704208
:10291000019902EA013108434FF44002029902EAA8
:10292000815108430E4951F82510C86005E04FF069
:1029300078500B4951F82510C860094850F8250017
:10294000006820F00100064951F82510086006983B
:102950002AE70000B83500000203050700800440A4
:102960003800FF1F00000A1A2000FF1F40420F001E
:1029700000B9704700214FF0E02211611146486113
:10298000002191610521116100BF4FF0E02109692B
:1029900001F480310029F8D000BFEAE700B5034612
:1029A00007E0064909684FF47A7201FB02F0FFF76D
:1029B000DFFF181EA3F10103F3D100BD1C00FF1FB0
:1029C0003EB504460D46062C6AD2DFE804F0031437
:1029D000253647587448406B40F48060724948631C
:1029E0004FF440716620FFF7FFFD4FF44071672000
:1029F000FFF7FAFD55E06C48406B40F400606A490F
:102A000048634FF440718120FFF7EEFD4FF44071B1
:102A10008020FFF7E9FD44E06348406B40F48050BC
:102A2000614948634FF440716320FFF7DDFD4FF4C7
:102A300040716220FFF7D8FD33E05B48406B40F403
:102A40000050594948634FF440715020FFF7CCFDC6
:102A50004FF440715120FFF7C7FD22E05248806AD1
:102A600040F48060504988624FF440714E20FFF777
:102A7000BBFD4FF440714F20FFF7B6FD11E04A480F
:102A8000806A40F40060484988624FF440718920B0
:102A9000FFF7AAFD4FF440718820FFF7A5FD00E085
:102AA0003EBD00BF414850F82400C07820F00C0023
:102AB0003E4951F82410C8703C4850F824008078F2
:102AC0003A4951F8241088700CB1012C05D13848CE
:102AD000006838494843029004E0374800683549A7
:102AE0004843029028010299B1FBF0F080B20190B6
:102AF0000198B0F5005F02D341F6FF700190029893
:102B00004000B0FBF5F10198A1EB40100090009857
:102B10001F2801D91F200090244850F82400007875
:102B200020F01F00214951F8241008701F4850F868
:102B3000240000780199C1F3042108431B4951F88E
:102B400024100870194951F824100198487017484A
:102B500050F82400807A20F01F00144951F8241006
:102B60008872124850F82400807A009901F01F0101
:102B700008430E4951F8241088720C4850F824007C
:102B8000007C40F08800094951F824100874074877
:102B900050F82400C07840F00C00044951F824108B
:102BA000C87000BF7CE70000008004404400FF1FA5
:102BB0001C00FF1F40420F002000FF1F000000000C
:102BC00000000000002F00000000070007000014B4
:102BD0007F147F1400242A7F2A12006264081323C2
:102BE00000364955225000000503000000001C2259
:102BF0004100000041221C000014083E0814000897
:102C0000083E0808000000A0600000080808080846
:102C1000000060600000002010080402003E5149DE
:102C2000453E0000427F400000426151494600217C
:102C300041454B31001814127F1000274545453996
:102C4000003C4A49493000017109050300364949F1
:102C5000493600064949291E0000363600000000AA
:102C600056360000000814224100001414141414F5
:102C7000000041221408000201510906003249599E
:102C8000513E007C1211127C007F49494936003EBA
:102C900041414122007F4141221C007F4949494175
:102CA000007F09090901003E4149497A007F08086F
:102CB000087F0000417F4100002040413F01007F2C
:102CC00008142241007F40404040007F020C027FF8
:102CD000007F0408107F003E4141413E007F09090A
:102CE0000906003E4151215E007F09192946004630
:102CF000494949310001017F0101003F4040403F07
:102D0000001F2040201F003F4038403F0063140850
:102D1000146300070870080700615149454300002B
:102D20007F414100000204081020000041417F0063
:102D30000004020102040040404040400000010243
:102D40000400002054545478007F4844443800382C
:102D50004444442000384444487F003854545418B4
:102D600000087E0901020018A4A4A47C007F0804C6
:102D700004780000447D4000004080847D00007F96
:102D8000102844000000417F4000007C04180478B3
:102D9000007C0804047800384444443800FC2424AF
:102DA00024180018242418FC007C08040408004897
:102DB0005454542000043F444020003C4040207CB8
:102DC000001C2040201C003C4030403C00442810A7
:102DD0002844001CA0A0A07C004464544C4414145B
:102DE0001414141400000000000000000000000093
:102DF00000000000000000F80000000000000033A8
:102E00003000000000100C06100C0600000000004E
:102E10000000000040C07840C0784000043F040437
:102E20003F040400007088FC08300000001820FFF8
:102E3000211E0000F008F000E018000000211C0333
:102E40001E211E0000F00888700000001E212324AF
:102E50001927211010160E000000000000000000CD
:102E600000000000000000E018040200000000075D
:102E70001820400000020418E00000000040201864
:102E800007000000404080F0804040000202010F37
:102E900001020200000000F0000000000101011F1B
:102EA00001010100000000000000000080B070007F
:102EB000000000000000000000000000000101010F
:102EC000010101010000000000000000003030009E
:102ED0000000000000000000806018040060180678
:102EE0000100000000E010080810E000000F1020B2
:102EF00020100F00001010F8000000000020203FFC
:102F00002020000000700808088870000030282485
:102F10002221300000300888884830000018202026
:102F200020110E000000C02010F80000000704244B
:102F3000243F240000F80888880808000019212090
:102F400020110E0000E0108888180000000F1120EA
:102F500020110E0000380808C83808000000003FA3
:102F6000000000000070880808887000001C222102
:102F700021221C0000E010080810E00000003122AF
:102F800022110F00000000C0C0000000000000304F
:102F900030000000000000800000000000008060A1
:102FA0000000000000008040201008000001020422
:102FB0000810200040404040404040000404040409
:102FC00004040400000810204080000000201008C5
:102FD00004020100007048080808F00000000030FA
:102FE00036010000C030C828E810E0000718272488
:102FF00023140B000000C038E0000000203C230236
:103000000227382008F8888888700000203F202098
:1030100020110E00C03008080808380007182020CA
:103020002010080008F808080810E000203F2020C1
:1030300020100F0008F88888E8081000203F2020A2
:103040002320180008F88888E8081000203F200096
:1030500003000000C03008080838000007182020CE
:10306000221E020008F808000008F808203F21018D
:1030700001213F20000808F8080800000020203F38
:103080002020000000000808F8080800C0808080A8
:103090007F00000008F888C028180800203F2001A1
:1030A0002638200008F8080000000000203F2020FB
:1030B0002020300008F8F800F8F80800203F003F12
:1030C000003F200008F830C00008F808203F20002A
:1030D00007183F00E01008080810E0000F1020203B
:1030E00020100F0008F808080808F000203F210110
:1030F00001010000E01008080810E0000F18242467
:1031000038504F0008F8888888887000203F2000D9
:10311000030C30200070880808083800003820218F
:1031200021221C00180808F8080818000000203F99
:103130002000000008F808000008F808001F202000
:1031400020201F000878880000C8380800000738D1
:103150000E010000F80800F80008F800033C070022
:10316000073C0300081868808068180820302C038A
:10317000032C30200838C800C83808000000203F61
:103180002000000010080808C83808002038262150
:1031900020201800000000FE020202000000007F54
:1031A00040404000000C30C0000000000000000162
:1031B0000638C00000020202FE000000004040404D
:1031C0007F00000000000402020204000000000072
:1031D00000000000000000000000000080808080EF
:1031E00080808080000202040000000000000000D7
:1031F0000000000000008080808000000019242270
:1032000022223F2008F8008080000000003F1120AB
:1032100020110E000000008080800000000E1120B0
:1032200020201100000000808088F800000E11208E
:1032300020103F200000808080800000001F22229C
:1032400022221300008080F0888888180020203F08
:10325000202000000000808080808000006B94941B
:103260009493600008F8008080800000203F2100D7
:1032700000203F2000809898000000000020203FA0
:1032800020200000000000809898000000C080808E
:10329000807F000008F8000080808000203F24022A
:1032A0002D302000000808F8000000000020203F1A
:1032B000202000008080808080808000203F2000CF
:1032C0003F20003F8080008080800000203F210060
:1032D00000203F200000808080800000001F202010
:1032E00020201F00808000808000000080FFA1203F
:1032F00020110E000000008080808000000E112050
:1033000020A0FF80808080008080800020203F21DE
:103310002000010000008080808080000033242491
:1033200024241900008080E0808000000000001F3D
:10333000202000008080000000808000001F2020EE
:1033400020103F20808080000080808000010E30AF
:103350000806010080800080008080800F300C0310
:103360000C300F0000808000808080000020312E13
:103370000E312000808080000080808080818E70EF
:103380001806010000808080808080000021302CA1
:103390002221300000000000807C020200000000BA
:1033A000003F404000000000FF000000000000005F
:1033B000FF0000000002027C800000000040403F4F
:1033C00000000000000601010202040400000000E9
:1033D00000000000C1F500084888090E8878080040
:1033E000F80000FF00201008050205081000032067
:1033F000203F00C1A60010101010D03F1010101078
:1034000010F0000020100806010000002020100F1E
:103410000000C3FA001028E72424100814A744244D
:10342000140C0001013F110900023F111111113F5D
:1034300000D7BF000000F84848484F4A4A4AFA02FD
:10344000020008080B0A0A0A3E0A0A0A0B080800CA
:10345000C7E700FC4444FC20AAAAAABFAAAAAA2043
:10346000000F04040F003F0A0A0A2A2A3F0000B492
:10347000F3001010101010D03FD0101010101000DA
:103480002020100806010001060810202000B1A32A
:10349000004020F807809E9292F292929E80000057
:1034A000003F00100806013F0106081000C6BD00DD
:1034B000808189B18181FF8181A199818000000093
:1034C000000000003F00000000000000B0B2005CFF
:1034D000444444C475464444C444445C002020220F
:1034E00013120A04040A0910200000CCEC00404228
:1034F00042424242FE4242424242400020201008E4
:1035000004030003040810202000CFC200020202BE
:103510000202FE02022242820202000000000000BB
:103520003F0000000001000000B5DA0008A4A3A6D7
:10353000AAA2E8A4A3A2E60A020010130A0A06023D
:103540003F020212120E0000D2BB00404040404039
:10355000404040404040404000000000000000006B
:1035600000000000000000000090044000A00440A3
:1035700000B0044000C0044000D0044000F00F4000
:1035800040F00F4080F00F40C0F00F4000F10F40BE
:103590000090044000A0044000B0044000C004407B
:1035A00000D0044000F00F4040F00F4080F00F408A
:1035B000C0F00F4000F10F400200000004000000C6
:1035C00006000000080000001000000020000000BD
:1035D0004000000080000000000100000002000028
:1035E000000400000008000000100000002000009F
:1035F0000040000000800000183600000000FF1F9F
:103600005C000000F4220000743600005C00FF1F24
:103610001C12000004230000000000000A0000004B
:10362000000000400000000000000000000000005A
:1036300064000000640000006400000000B5802108
:10364000017001780906FCD500BD000000000000F3
:1036500000C0024000D0024000C00A4000A0064066
:1036600000B0064000C0064000D0064000A00E405A
:0436700000B00E4058
:0400000500000411E2
:00000001FF
